:100000000C946E000C9496000C9496000C94960040
:100010000C9496000C9496000C9496000C94960008
:100020000C9496000C9496000C9496000C949600F8
:100030000C9496000C9496000C9496000C949600E8
:100040000C94E3010C9496000C942A030C942D025A
:100050000C9496000C9496000C9496000C949600C8
:100060000C94BF070C949600610CDA0CA40C8C0C59
:10007000170C170C5B0C170C5B0C170C5B0C5B0C58
:100080005B0C170C5B0C5B0C0000000024002700CD
:100090002A0000000008000201000003040700001D
:1000A000000000000000010204081020408001024E
:1000B00004081020010204081020000000002500A0
:1000C00028002B00040404040404040402020202B5
:1000D0000202030303030303080EF80D11241FBEDD
:1000E000CFEFD8E0DEBFCDBF23E0AEE2B1E001C08C
:1000F0001D92AA3DB207E1F711E0A0E0B1E0E2E70E
:10010000F2E202C005900D92AE32B107D9F710E0CD
:10011000CDE6D0E004C02197FE010E94B30FCC369B
:10012000D107C9F70E9433090C942C110C940000DC
:1001300080917B0190E020917C01821B91090895C0
:10014000CF92DF92EF92FF920F931F93CF93DF93A3
:100150006C017A018B01C0E0D0E0CE15DF0589F09B
:10016000D8016D918D01D601ED91FC910190F08146
:10017000E02DC6010995892B11F47E0102C021965C
:10018000ECCFC701DF91CF911F910F91FF90EF90BE
:10019000DF90CF900895CF92DF92EF92FF920F936E
:1001A0001F93CF93DF937C01262F972F8A01809195
:1001B0005001882391F0C62FD72F6E01C40ED51E93
:1001C000CC15DD0571F06991D701ED91FC9101909D
:1001D000F081E02DC7010995F3CF642F822F0E9493
:1001E000ED08C801DF91CF911F910F91FF90EF9023
:1001F000DF90CF900895CF93DF931F92CDB7DEB7F6
:100200006983209150012223D1F020914F012032A7
:1002100040F021E030E0FC013383228380E090E075
:1002200015C080914E01E82FF0E0E25DFE4F99810C
:1002300090838F5F80934E0180934F0105C061E0F2
:10024000CE0101960E94ED0881E090E00F90DF91D1
:10025000CF91089580EB91E00E94880221E0892BE4
:1002600009F420E0822F08950E94E61090E0FC013E
:10027000EE56FF4F3491FC01EA55FF4F2491FC01EB
:10028000EC53FF4FE491EE2309F43BC0332339F1E3
:10029000333091F038F43130A9F0323001F584B5C3
:1002A0008F7D12C0373091F03830A1F03430B9F47E
:1002B000809180008F7D03C0809180008F77809334
:1002C00080000DC084B58F7784BD09C08091B000D7
:1002D0008F7703C08091B0008F7D8093B000F0E0F5
:1002E000EE0FFF1FE654FF4FA591B4918FB7F8941E
:1002F000EC91611103C020952E2301C02E2B2C936D
:100300008FBF0895CF93DF9390E0FC01EA55FF4F34
:100310002491FC01EC53FF4F8491882361F190E01C
:10032000880F991FFC01E857FF4FC591D491FC013C
:10033000E654FF4FA591B491611109C09FB7F8949D
:100340008881209582238883EC912E230BC0623014
:1003500061F49FB7F8943881822F80958323888336
:10036000EC912E2B2C939FBF06C08FB7F894E88199
:100370002E2B28838FBFDF91CF9108953FB7F8943C
:100380008091560190915701A0915801B091590167
:1003900026B5A89B05C02F3F19F00196A11DB11DE0
:1003A0003FBFBA2FA92F982F8827820F911DA11D1B
:1003B000B11DBC01CD0142E0660F771F881F991F58
:1003C0004A95D1F708951F920F920FB60F921124FC
:1003D0002F933F938F939F93AF93BF93809152013D
:1003E00090915301A0915401B09155013091510168
:1003F00023E0230F2D3720F40196A11DB11D05C068
:1004000026E8230F0296A11DB11D20935101809370
:10041000520190935301A0935401B09355018091E0
:10042000560190915701A0915801B0915901019640
:10043000A11DB11D8093560190935701A0935801BF
:10044000B0935901BF91AF919F918F913F912F919F
:100450000F900FBE0F901F9018951F920F920FB61E
:100460000F9211242F933F934F935F936F937F933A
:100470008F939F93AF93BF93EF93FF9380EB91E0A4
:100480000E945C03FF91EF91BF91AF919F918F917B
:100490007F916F915F914F913F912F910F900FBE80
:1004A0000F901F901895089580E090E00895FC014A
:1004B000538D448D252F30E0842F90E0821B930BC9
:1004C000541710F0CF96089501970895FC01918D6F
:1004D000828D981761F0828DDF01A80FB11D5D96A6
:1004E0008C91928D9F5F9F73928F90E008958FEF14
:1004F0009FEF0895FC01918D828D981731F0828DC8
:10050000E80FF11D858D90E008958FEF9FEF08951E
:10051000FC01918D228D892F90E0805C9F4F821B82
:1005200091098F739927089580E090E0892B29F035
:100530000E942A0181110C94000008950895CF9221
:10054000DF92FF920F931F93CF93DF93FC01F08014
:1005500021E020935001F0925A0110924E01109226
:100560004F018C01025F1F4FEC0166966801F80194
:10057000618184EA91E00E94FB000E5F1F4FF6014B
:10058000608184EA91E00E94FB000C171D0771F75F
:1005900090914F01913208F04AC080917E01811103
:1005A000FCCF22E020937E0121E0209380012FEFF9
:1005B00020937D011092A2019093A101AEE2B1E0DF
:1005C00041E851E0FA012E2F241B291718F42D9130
:1005D0002193F9CF1092A3019091A301FF0CF92A66
:1005E000F092A30190917F01913061F410927F010C
:1005F0009091A3019093BB009091BC0093FDF8CF24
:1006000095EC01C095EE9093BC0090917E019230E4
:10061000E1F390917D019F3F79F080917D018032DF
:1006200041F080917D01803331F084E005C081E0AC
:1006300003C082E001C083E010924E0110924F018E
:1006400010925001DF91CF911F910F91FF90DF9099
:10065000CF9008951F920F920FB60F9211242F93EF
:100660008F939F93EF93FF93E091C001F091C101AD
:100670008081E091C601F091C70182FD12C0908196
:100680008091C9018F5F8F732091CA01821751F049
:10069000E091C901F0E0E055FE4F958F8093C901CC
:1006A00001C08081FF91EF919F918F912F910F90C9
:1006B0000FBE0F901F901895FC01848DDF01A80FCD
:1006C000B11DA35ABF4F2C91848D90E001968F737A
:1006D0009927848FA689B7892C93A089B1898C9199
:1006E00080648C93938D848D981306C00288F3895F
:1006F000E02D80818F7D80830895EF92FF920F938C
:100700001F93CF93DF93EC0181E0888F9B8D8C8DBD
:10071000981305C0E889F989808185FD24C0F62EEB
:100720000B8D10E00F5F1F4F0F731127E02E8C8D84
:10073000E8120CC00FB607FCFACFE889F98980816E
:1007400085FFF5CFCE010E945C03F1CF8B8DFE01BA
:10075000E80FF11DE35AFF4FF0820B8FEA89FB8906
:100760008081806207C0EE89FF896083E889F9890A
:1007700080818064808381E090E0DF91CF911F9140
:100780000F91FF90EF900895CF93DF93EC01888D48
:100790008823C9F0EA89FB89808185FD05C0A88985
:1007A000B9898C9186FD0FC00FB607FCF5CF80810B
:1007B00085FFF2CFA889B9898C9185FFEDCFCE0155
:1007C0000E945C03E7CFDF91CF9108958F929F92B3
:1007D000AF92BF92CF92DF92EF92FF920F931F934F
:1007E000CF93DF93EC015B0108811981015011095E
:1007F00017FD24C0F501E00FF11FC0809A808C80A6
:1008000087E0E82EF12CD12C96010E2C02C03595F4
:1008100027950A94E2F7B90161707727882D0E9425
:10082000360161E0892D0E94360160E0892D0E9429
:10083000360181E0E81AF10838F7D8CFB986A886E2
:1008400061E08E810E94360160E08E81DF91CF9160
:100850001F910F91FF90EF90DF90CF90BF90AF90DE
:100860009F908F900C943601CF93C82FE82FF0E023
:1008700083E0F595E7958A95E1F7809125039091BE
:100880002603E80FF91F8C2F877021E030E001C0AC
:10089000220F8A95EAF72095808128232083609192
:1008A0002503709126038DE193E00E94E603809179
:1008B0000A0390910B03892B41F04C2F50E060E02C
:1008C00070E080E090E00E94F90684E6CF910C94FD
:1008D000B8061F93CF93DF93182FC82FD0E070E096
:1008E000FE01EE0FFF1F8430D0F5E759FC4F7183F6
:1008F00060838BE593E00E949F0283E0D595C795C6
:100900008A95E1F78091250390912603C80FD91F9E
:10091000812F877021E030E001C0220F8A95EAF72D
:100920008881282B288360912503709126038DE10F
:1009300093E00E94E60380910A0390910B03892BB8
:1009400041F0412F50E060E070E080E090E00E94D4
:10095000F9068FEFDF91CF911F910C94B806EB5CF5
:10096000FC4F7183608387E293E0C5CFCF92DF9223
:10097000EF92FF920F931F93CF93DF93CDB7DEB724
:1009800029970FB6F894DEBF0FBECDBF8C010E9431
:10099000BE01D8011E96CD90DD90ED90FC90519750
:1009A000DC01CB018C199D09AE09BF098C32914045
:1009B000A105B10560F3F894D80114968D919C912E
:1009C00015979A8389831896ED91FC9119977F0169
:1009D000BFEFEB1AFB0A80818B83F80190810288BC
:1009E000F389E02DD80154968C91992309F430C0F5
:1009F0009081982B9C839081809589238D838D8114
:100A00008E8388E08F835C816D814B813F812E8155
:100A100089819A81D701508347FD252F3A952083FC
:100A2000262F39F0441F00C000006083000000C082
:100A3000F2CF38E04D9160830000019761F7D80153
:100A40005396FC93EE9352974B833F832E833AC089
:100A50009081982B9C839081809589238D838D81B3
:100A6000888788E089875C816D814B8139852885FD
:100A700089819A81D701508347FD252F00C000C08E
:100A8000208300C000C000C000C000C06083000020
:100A9000262F3A9541F0441F000000C000C000C05E
:100AA00000C000C0E8CF38E04D9100C0608300C0B6
:100AB000019709F7D8015396FC93EE9352974B8315
:100AC000398728879A83898378940E94BE01F80128
:100AD00066877787808B918B29960FB6F894DEBF57
:100AE0000FBECDBFDF91CF911F910F91FF90EF907F
:100AF000DF90CF900895CF92DF92EF92FF920F9305
:100B00001F93CF93DF93EC01888190917E01911127
:100B1000FCCF91E090937E01909380012FEF209382
:100B20007D011092A20127E12093A1019093A301DE
:100B30009091A301880F892B8093A30180917F015D
:100B4000813061F410927F018091A3018093BB00FA
:100B50008091BC0083FDF8CF85EC01C085EE8093C9
:100B6000BC0080917E018130E1F38091A201883147
:100B700018F48091A20101C088E1A1E8B1E02BE561
:100B800031E0F9019E2F921B981718F49D919193D3
:100B9000F9CF10927C0180937B0190917B01809131
:100BA0007C01981709F465C084EA91E00E94A406CC
:100BB0007C0184EA91E00E94A4066C0184EA91E041
:100BC0000E94A406AC0197012073332784E0359579
:100BD00027958A95E1F78E01020F131FD601A078A1
:100BE000BB27F601E071FF27B601607677279C2DC1
:100BF0009F705527E3FE1BC07D01EE0CEF2CEE1C11
:100C0000FF08D8015E96EC925E9714E0F595E795A3
:100C10001A95E1F79296EC93929705E07595679592
:100C20000A95E1F796966C93F9013B961AC07D01FF
:100C3000EE0CEF2CEE1CFF08D8011296EC921297E6
:100C400014E0F595E7951A95E1F71696EC9316974B
:100C500005E0759567950A95E1F71A966C93F90189
:100C60003796EE0FFF1FEC0FFD1F592B518340836A
:100C700094CFDF91CF911F910F91FF90EF90DF9074
:100C8000CF9008956D3F71053CF46A3F710554F4AF
:100C9000683F710589F406C09B012E5F310922303F
:100CA000310550F4DC018D919C91DC01ED91FC91BA
:100CB0000190F081E02D0994089587FF0DC09CE01C
:100CC000980F923048F0982F9B7F993F29F0803FF2
:100CD00008F4807F90E0089580E090E008959C0102
:100CE0008F7C8038910561F0203D310549F081E02D
:100CF000203E310539F0203C310521F080E0089597
:100D000081E008950895DC01ED91FC910190F0815E
:100D1000E02D099485ED8093BC008091BC0084FD9A
:100D2000FCCF10927E0108950895E0917C0180919E
:100D30007B01E81730F4F0E0E55AFE4F808190E047
:100D400008958FEF9FEF089590917C0180917B0132
:100D5000981750F4E92FF0E0E55AFE4F208130E07B
:100D60009F5F90937C0102C02FEF3FEFC901089570
:100D70001F93CF93DF9311E0180F20910F031217E9
:100D8000A1F1C0911003D09111032150B9F08F3F10
:100D900059F430E040E050E06FEF7FEF80E090E00A
:100DA0000E94EB10B9010CC0812F90E0982F88278A
:100DB0000197622F70E00E949F0F02C060E070E018
:100DC000FE0140910C0350910D03CF018C1B9D0B34
:100DD0008417950740F44081469FC001479F900DBE
:100DE00011249193EECF10930F03DF91CF911F91B8
:100DF00008958F929F92AF92BF92CF92DF92EF921F
:100E0000FF924B01AA24BB24E82DC52ED62EE72E37
:100E1000FF24FC2D342F20910F03222361F0829EAA
:100E200040011124E92DC29E60011124FD2D429F35
:100E3000D00111243B2FF0901503E0901203A091F4
:100E40001003B0911103FE1008C0AC01440F551FF0
:100E5000840F951F8A0F9B1F14C0880F991F880F3E
:100E6000991F8A0F9B1F472F552766277727DC017D
:100E7000AF0DB11D222321F0429FA0011124452F67
:100E80004C9320911203DC01A20FB11DEC93209131
:100E90001303DC01A20FB11DFC9320911403FC018C
:100EA000E20FF11D3083FF90EF90DF90CF90BF9065
:100EB000AF909F908F900895EF92FF921F93CF93E2
:100EC000DF931F92CDB7DEB77C01162F2150203162
:100ED00008F04EC080E8E816F1040CF449C0A1EE19
:100EE000EA16F104ACF58091710290917202DC0176
:100EF000ED91FC916E2D622B0190F081E02D4983E4
:100F000009958091710290917202DC01ED91FC9142
:100F1000612F6F770190F081E02D0995E894E4F856
:100F20004981B0ECEB16F10419F1809171029091B6
:100F30007202DC01ED91FC91642F6F770190F081DA
:100F4000E02D0F90DF91CF911F91FF90EF900994CA
:100F5000C701885F9109089758F4B70181E792E0CB
:100F60000F90DF91CF911F91FF90EF900C9442066C
:100F70000F90DF91CF911F91FF90EF9008951F92F6
:100F80000F920FB60F9211242F933F934F935F93BD
:100F90006F937F938F939F93AF93BF93EF93FF9341
:100FA0008091B900887F803609F49CC068F588324A
:100FB00009F45BC090F4803109F454C038F48823FC
:100FC00009F4F6C0883009F44DC0F6C0883109F440
:100FD0004CC0803209F45DC0EFC0803409F468C0B1
:100FE00048F4803309F455C0883309F0E5C0809394
:100FF0007D01D8C0803509F44FC0883509F45DC043
:10100000883409F0D9C0D6C0883909F4C7C0A8F41B
:10101000883709F467C038F4883609F463C080372C
:1010200009F460C0C9C0883809F4B8C0803909F42F
:101030005FC0803809F0C0C05BC0803B09F486C047
:1010400038F4803A09F466C0883A09F47FC0B4C025
:10105000803C09F4A7C0883C09F4A4C0883B09F48B
:101060008AC0AAC08091A30110C09091A201809172
:10107000A101981770F5E091A20181E08E0F809395
:10108000A201F0E0EF57FE4F80818093BB0085EC1A
:1010900086C080937D018EC0E091A20181E08E0F19
:1010A0008093A2018091BB00F0E0EF57FE4F808358
:1010B0009091A2018091A1016EC0E091A20181E016
:1010C0008E0F8093A2018091BB00F0E0EF57FE4F9E
:1010D00080838091800181116DC081E080937F01C8
:1010E00084EA61C083E080937E011092D503CFCF64
:1010F0008091D503803208F051C0E091D50381E0A2
:101100008E0F8093D5038091BB00F0E0EB54FC4F31
:101110008083BDCF85EC8093BC0010927E018091CE
:10112000D503803230F4E091D503F0E0EB54FC4F6E
:1011300010826091D50370E0E091B303F091B403A5
:1011400085EB93E009951092D50336C084E0809337
:101150007E011092B2031092B103E091AF03F091BF
:10116000B00309958091B103811105C081E080939E
:10117000B10310928F03E091B20381E08E0F809350
:10118000B203F0E0E157FC4F80818093BB00909167
:10119000B2038091B103981708F479CF85E8809362
:1011A000BC000AC085EC8093BC0010927E0104C094
:1011B00010927D010E948A06FF91EF91BF91AF913D
:1011C0009F918F917F916F915F914F913F912F915F
:1011D0000F900FBE0F901F9018954091B103262FCE
:1011E00030E0240F311D21323105DCF420917E01E5
:1011F0002430C9F4FC0180E090E0861758F4309167
:10120000B1032191DC01A157BC4FA30FB11D2C9359
:101210000196F3CF8091B103680F6093B10380E032
:10122000089581E0089582E0089510927E0181E0A2
:101230008093800110927F0161E082E10E9436017B
:1012400061E083E10E943601E9EBF0E080818E7F6E
:10125000808380818D7F808388E48093B80085E4DB
:101260008093BC000895CF93DF9300D01F92CDB739
:10127000DEB7789484B5826084BD84B5816084BD16
:1012800085B5826085BD85B5816085BD80916E0024
:10129000816080936E001092810080918100826055
:1012A0008093810080918100816080938100809192
:1012B00080008160809380008091B1008460809381
:1012C000B1008091B00081608093B00080917A007D
:1012D000846080937A0080917A00826080937A00A3
:1012E00080917A00816080937A0080917A00806892
:1012F00080937A001092C100E091C001F091C10189
:1013000022E02083E091BC01F091BD011082E091C8
:10131000BE01F091BF018FEC80831092C801E09173
:10132000C401F091C50196E09083E091C201F09173
:10133000C301808180618083E091C201F091C3018B
:10134000808188608083E091C201F091C301808137
:1013500080688083E091C201F091C30180818F7D1C
:101360008083E0917102F0917202A089B1892C937F
:10137000A485B5851C92A685B7858FE38C93108EC6
:10138000A489B5899C93A289B3898C9180618C933F
:10139000A289B3898C9188608C93A289B3898C913E
:1013A00080688C930288F389E02D80818F7D808313
:1013B00010927302109275021092740210927C02C5
:1013C00010927B0210927A02109279028FEF9FEFB7
:1013D00090937E0280937D029093800280937F029F
:1013E00010920703109284021092830210928202DC
:1013F0001092850210928602809181028170826033
:1014000081608093810289E694E0909350028093FA
:101410004F0284E394E090934E0280934D028EE954
:1014200092E0909354028093530280E090E02091E8
:101430001D0330911E0360912503709126038217CE
:10144000930734F4FB01E80FF91F10820196EFCFE8
:101450008DE193E00E94E60310927C0110927B01E3
:1014600010924E0110924F010E9415098BE593E0F6
:101470000E947B0510927C0110927B010E9415094D
:1014800087E293E00E947B0550E8C52ED12C11E045
:1014900067EF262E70EF472E512CE2E0AE2EB12CD6
:1014A000F3E08F2E912CA0EF3A2E66246394712CDA
:1014B00000917302013108F0BAC1809171029091DC
:1014C0007202DC01ED91FC910084F185E02D09951B
:1014D000892B09F4ACC18091710290917202DC01F8
:1014E000ED91FC910284F385E02D0995BC018B7F81
:1014F000893F09F49CC120917B0230917C02211527
:10150000310509F0ADC060937602F09074028F2D22
:1015100069837A830E945D060E946F066981882331
:1015200051F067FD08C0F0927602609377027092E6
:101530007C0260927B02F09076028F2D0E945D0605
:10154000813F910509F45DC06CF5803B910509F47C
:101550005DC06CF48039910509F458C0803A91055A
:1015600009F454C08038910509F0D3C04FC0803DC4
:10157000910509F446C02CF4803C910509F441C062
:10158000C8C0803E910509F441C0803F910509F033
:10159000C0C0D0927A02C092790210927402309246
:1015A000870238C0883F9105B9F044F4833F910524
:1015B00041F164F1863F910579F0ABC08A3F910516
:1015C0000CF4A7C08D3F91053CF09C012E5F3109C2
:1015D0002230310508F09DC09093840280938302ED
:1015E00010928202109285021092860210930703D5
:1015F00010927C0210927B0210927A021092790271
:10160000F1C0B0927A02A092790204C090927A025C
:101610008092790220917B0230917C024091790284
:1016200050917A02415051092417350708F4D3C06C
:1016300090938402809383028F2D8F708F5F8093AD
:101640008202809177028093850210928602109226
:101650007C0210927B0210927A021092790221C0D1
:1016600067FF41C0CB0199278D3F910554F48A3F14
:1016700091056CF4873F9105B9F0883F910599F584
:1016800006C0AC014E5F51094230510560F59093A0
:101690008402809383021092850210928602109237
:1016A0008202109307039EC080918702803F89F5D4
:1016B000C9010196F901E35BFD4F22AE509284020D
:1016C0004092830280938502909386021092820258
:1016D0001093070310927C0210927B0210927A0200
:1016E0001092790275C080917602F901E35BFD4F9B
:1016F000803FD1F462AF4091790250917A02CA01E1
:1017000001972817390708F466C020917602203F18
:1017100069F410927C0210927B0210927A0210926D
:1017200079021092740283C061A7E5CF822F2B83C8
:1017300049835A830E945D067C01909384028093C2
:1017400083020E946F062B8149815A81882331F0E0
:10175000822F8F708F5F8093820202C0109282026C
:1017600080917702809385024330510519F480916E
:10177000780201C080E08093860210927C02109271
:101780007B0210927A021092790210930703B0EB59
:10179000EB16F104D1F06CF4A0E9EA16F104A9F01B
:1017A000B0EAEB16F10489F080E8E816F10481F460
:1017B0000CC0A0EDEA16F10441F0B0EEEB16F10416
:1017C00021F080ECE816F10419F4209374020AC0A9
:1017D0001092740207C02F5F3F4F30937C0220931A
:1017E0007B0225C08091830290918402803991050B
:1017F00029F480918602882309F400C18091830234
:10180000909184029C01205831092136310508F05D
:10181000FAC020918202201709F4F5C0002309F4D0
:10182000F2C040918102342F317040FD0DC0809193
:10183000100390911103892B21F088E093E00E941E
:10184000B6040E94940234CE842F8E7F81F380915F
:10185000830290918402BC01605871096136710560
:10186000F8F420918202201719F031E0011130E0E4
:10187000469550E04230510539F04330510539F07A
:1018800041305105A1F605C0332389F202C0311160
:10189000CECF40918602609185020E945C07C7CF3F
:1018A000FC01E05FF109E031F10508F0C0CFEC5C2C
:1018B000FF4F0C94B30FBC0181E792E00E944206F7
:1018C000B6CF8091860290E0382F22278091850242
:1018D000282B2138310510F020E830E0E12CF12CE4
:1018E000E216F30609F4A3CF80917102909172027F
:1018F000DC01ED91FC91D701A35BBD4F0190F0811C
:10190000E02DDA966C912B8339830995BFEFEB1AA2
:10191000FB0A39812B81E4CF00918502809171020D
:1019200090917202DC01ED91FC910190F081E02D2B
:1019300063EF09950F77602F70E0809171029091AD
:1019400072020E94830673CF90918602B0E89B9F3B
:101950007001112480918502E82A80917102909192
:101960007202DC01ED91FC910190F081E02D62EFBB
:1019700009958091710290917202DC01ED91FC91C8
:10198000B7016F7777270190F081E02D099580915D
:10199000710290917202DC01ED91FC91B701660F2A
:1019A000672F661F770B71956F7777270190F0810E
:1019B000E02D22C0809185028770B0E18B9FC0012D
:1019C0001124009186020F70082B80917102909172
:1019D0007202DC01ED91FC910190F081E02D61EF4C
:1019E00009958091710290917202DC01ED91FC9158
:1019F0000190F081E02D602F099519CFD0928402DB
:101A0000C0928302FBCE813F9105C1F4E0915D025B
:101A1000F0915E020CC08B3F91050CF0C8C0833F73
:101A2000910509F0A5C0E0916102F0916202309742
:101A300009F4F7CE809185020995F3CE823F910596
:101A40000CF080C0803B9105C1F4E0915302F0910D
:101A5000540208C08038910509F0E3CEE0914D02B0
:101A6000F0914E02309709F4DCCE409186026091ED
:101A70008502809182020995D4CE813B910584F440
:101A80008039910529F4E0914F02F0915002EACF9C
:101A9000803A9105F9F6E0915102F0915202E2CFBD
:101AA000803D910529F4E0915702F09158020BC056
:101AB000813D91058CF4803C910509F0B2CEE09116
:101AC0005502F0915602309709F4ABCE6091850231
:101AD000809182020995A5CE803E9105B9F4E091EE
:101AE0005902F0915A02309709F49BCE6091860218
:101AF0006F77A0E86A9FB0011124809185028F77EB
:101B0000682B70528091820209958BCE803F91059F
:101B100009F087CEE0915B02F0915C02309709F406
:101B200080CE6091860270E0762F662780918502D4
:101B3000682B6138710510F060E870E087E892E08A
:101B400009956FCE8A3F910509F065CFE091670254
:101B5000F091680208C0883F910509F062CEE091DB
:101B60006502F0916602309709F45BCE099559CE73
:101B7000833F9105A4F4E0915F02F09160023097F9
:101B800009F44FCE809186028F77B0E88B9FC00119
:101B90001124209185022F77822B099542CE863F12
:101BA0009105C9F6E0916302F0916402DCCF8C3FAD
:101BB000910529F4E0916B02F0916C02D4CF8C3F37
:101BC00091052CF4E0916902F0916A02CCCF8E3F2E
:101BD000910529F4E0916D02F0916E02C4CF8F3F20
:101BE000910509F01ECEE0916F02F0917002BBCF1B
:101BF0008091100390911103009711F00E944E10F4
:101C000080910E0387FD03C060E00C94820108956B
:101C1000CF931092A7011092A60188EE93E0A0E066
:101C2000B0E08093A8019093A901A093AA01B0937A
:101C3000AB012EE031E03093A5012093A401109276
:101C4000B3011092B2018093B4019093B501A093B7
:101C5000B601B093B70180E291E09093B101809317
:101C6000B00185EC90E09093BD018093BC0184ECC1
:101C700090E09093BF018093BE0180EC90E0909340
:101C8000C1018093C00181EC90E09093C3018093E7
:101C9000C20182EC90E09093C5018093C40186EC70
:101CA00090E09093C7018093C6011092C9011092F1
:101CB000CA011092CB011092CC0110925C0380E615
:101CC00080935B0388E893E190938E0380938D0368
:101CD000C1E0C093280321E62093270390935A0381
:101CE0008093590381E090E090931E0380931D033D
:101CF0009093200380931F031092220310922103DC
:101D000082E090E0909324038093230361E081E0DC
:101D10000E94820161E080E00E94820161E082E035
:101D20000E94820160E081E00E94360160E080E074
:101D30000E94360160E082E00E94360181E090E07E
:101D40000E94B90F9093260380932503DC011C9217
:101D5000BC018DE193E00E94E6031092090310920A
:101D60000F0310921603109217031092180310928B
:101D70001903C0931503C09312031092130382E05A
:101D800080931403C093080388E190E090930D03BF
:101D900080930C030E94B90F90931103809310035A
:101DA000009761F028E1FC0111922A95E9F788E09B
:101DB00090E090930B0380930A0308C010920D03E8
:101DC00010920C0310920B0310920A0386E080938A
:101DD0000E0380910903882341F061E086E00E94B0
:101DE000820160E086E00E943601EAECF0E0E491D6
:101DF000F0E0EE0FFF1FE654FF4F85919491909312
:101E00001B0380931A03ECEAF0E0E491E0931C03D7
:101E100080910E0387FD08C061E00E94820160E0AE
:101E200080910E030E94360181E080930903809126
:101E3000100390911103892B21F088E093E00E9418
:101E4000B60480EB91E0909372028093710210923D
:101E50007302109274021092750210927A0210921C
:101E6000790210927C0210927B028FEF9FEF909389
:101E70007E0280937D029093800280937F0283E0B4
:101E80008093810210928202109284021092830247
:101E900010928502109286021092070380E8E7E80C
:101EA000F2E0DF011D928A95E9F710924E0210923E
:101EB0004D021092500210924F0210925202109254
:101EC0005102109254021092530210925602109234
:101ED0005502109258021092570210925A02109214
:101EE000590210925C0210925B0210925E021092F4
:101EF0005D021092600210925F02109262021092D4
:101F000061021092640210926302109266021092B3
:101F10006502109268021092670210926A02109293
:101F2000690210926C0210926B0210926E02109273
:101F30006D021092700210926F02CF910895AA1B49
:101F4000BB1B51E107C0AA1FBB1FA617B70710F0A4
:101F5000A61BB70B881F991F5A95A9F780959095D6
:101F6000BC01CD010895EE0FFF1F0590F491E02D07
:101F70000994CF93DF938230910510F482E090E0D2
:101F8000E091D803F091D90320E030E0C0E0D0E048
:101F9000309711F14081518148175907C0F0481717
:101FA000590761F482819381209719F09B838A837A
:101FB0002BC09093D9038093D80326C021153105F7
:101FC00019F04217530718F49A01BE01DF01EF011F
:101FD0000280F381E02DDCCF2115310509F1281BAA
:101FE000390B2430310590F412968D919C91139702
:101FF0006115710521F0FB019383828304C09093E6
:10200000D9038093D803FD01329644C0FD01E20F4D
:10201000F31F81939193225031092D933C933AC041
:102020002091D6033091D703232B41F42091020154
:10203000309103013093D7032093D6032091000100
:10204000309101012115310541F42DB73EB7409182
:10205000040150910501241B350BE091D603F0914A
:10206000D703E217F307A0F42E1B3F0B28173907FD
:1020700078F0AC014E5F5F4F2417350748F04E0FE4
:102080005F1F5093D7034093D6038193919302C06F
:10209000E0E0F0E0CF01DF91CF9108950F931F931F
:1020A000CF93DF93009709F48CC0FC013297138221
:1020B00012820091D8031091D9030115110581F402
:1020C00020813181820F931F2091D6033091D70355
:1020D0002817390779F5F093D703E093D60371C039
:1020E000D80140E050E0AE17BF0750F412962D9192
:1020F0003C911397AD012115310509F1D901F3CFB9
:102100009D01DA013383228360817181860F971FDD
:102110008217930769F4EC0128813981260F371F54
:102120002E5F3F4F318320838A819B8193838283FB
:10213000452B29F4F093D903E093D80342C01396BA
:10214000FC93EE931297ED01499159919E01240F52
:10215000351FE217F30771F480819181840F951F79
:10216000029611969C938E938281938113969C93F1
:102170008E931297E0E0F0E0D80112968D919C9139
:102180001397009719F0F8018C01F6CF8D919C916F
:1021900098012E5F3F4F820F931F2091D6033091FD
:1021A000D7032817390769F4309729F41092D90317
:1021B0001092D80302C0138212821093D7030093A7
:1021C000D603DF91CF911F910F91089581E090E0A8
:1021D000F8940C942C11052E97FB1EF400940E9489
:1021E000021157FD07D00E940A1107FC03D04EF4DC
:1021F0000C94021150954095309521953F4F4F4FCB
:102200005F4F089590958095709561957F4F8F4FA2
:102210009F4F0895A1E21A2EAA1BBB1BFD010DC002
:10222000AA1FBB1FEE1FFF1FA217B307E407F50786
:1022300020F0A21BB30BE40BF50B661F771F881F62
:10224000991F1A9469F760957095809590959B01F8
:10225000AC01BD01CF01089510E0CDE6D0E004C08F
:10226000FE010E94B30F2196CE36D107C9F7F8942C
:02227000FFCF9E
:102272000000DA0380000100000000000000FB0003
:10228200CB00540294069800A406950600000000B4
:0E2292007D03A0005702C403880266027A0290
:00000001FF
