:100000000C946E000C9496000C9496000C94960040
:100010000C9496000C9496000C9496000C94960008
:100020000C9496000C9496000C9496000C949600F8
:100030000C9496000C9496000C9496000C949600E8
:100040000C94E4010C9496000C9454020C942E022F
:100050000C9496000C9496000C9496000C949600C8
:100060000C947A030C949600500BC90B930B7B0BEA
:10007000110B110B4A0B110B4A0B110B4A0B4A0BBC
:100080004A0B110B4A0B4A0B00000000240027000A
:100090002A0000000008000201000003040700001D
:1000A000000000000000010204081020408001024E
:1000B00004081020010204081020000000002500A0
:1000C00028002B00040404040404040402020202B5
:1000D0000202030303030303E70C320F11241FBEC4
:1000E000CFEFD8E0DEBFCDBF23E0AEE2B1E001C08C
:1000F0001D92AA3DB207E1F711E0A0E0B1E0EEE009
:10010000F1E202C005900D92AE32B107D9F710E0CE
:10011000CDE6D0E004C02197FE010E94420FCC360C
:10012000D107C9F70E942D080C947A100C94000096
:1001300080917A0190E020917B01821B91090895C2
:10014000CF92DF92EF92FF920F931F93CF93DF93A3
:100150006C017A018B01C0E0D0E0CE15DF0589F09B
:10016000D8016D918D01D601ED91FC910190F08146
:10017000E02DC6010995892B11F47E0102C021965C
:10018000ECCFC701DF91CF911F910F91FF90EF90BE
:10019000DF90CF9008950895CF92DF92EF92FF9273
:1001A0000F931F93CF93DF937C01262F972F8A0104
:1001B00080915001882391F0C62FD72F6E01C40E75
:1001C000D51ECC15DD0571F06991D701ED91FC913B
:1001D0000190F081E02DC7010995F3CF642F822FA4
:1001E0000E94A804C801DF91CF911F910F91FF9049
:1001F000EF90DF90CF900895CF93DF931F92CDB70C
:10020000DEB76983209150012223D1F020914F0164
:10021000203240F021E030E0FC013383228380E093
:1002200090E015C080914E01E82FF0E0E25DFE4FB6
:10023000998190838F5F80934E0180934F0105C019
:1002400061E0CE0101960E94A80481E090E00F9049
:10025000DF91CF9108958FEA91E00E94220521E07D
:10026000892B09F420E0822F08950E94751090E0F8
:10027000FC01EE56FF4F3491FC01EA55FF4F2491EB
:10028000FC01EC53FF4FE491EE2309F43BC0332310
:1002900039F1333091F038F43130A9F0323001F5D2
:1002A00084B58F7D12C0373091F03830A1F03430F2
:1002B000B9F4809180008F7D03C0809180008F779A
:1002C000809380000DC084B58F7784BD09C0809174
:1002D000B0008F7703C08091B0008F7D8093B00015
:1002E000F0E0EE0FFF1FE654FF4FA591B4918FB7DA
:1002F000F894EC91611103C020952E2301C02E2BA0
:100300002C938FBF0895CF93DF9390E0FC01EA55C3
:10031000FF4F2491FC01EC53FF4F8491882361F13E
:1003200090E0880F991FFC01E857FF4FC591D491C9
:10033000FC01E654FF4FA591B491611109C09FB72C
:10034000F8948881209582238883EC912E230BC01A
:10035000623061F49FB7F8943881822F80958323AF
:100360008883EC912E2B2C939FBF06C08FB7F894F7
:10037000E8812E2B28838FBFDF91CF9108953FB75F
:10038000F8948091560190915701A0915801B09135
:10039000590126B5A89B05C02F3F19F00196A11D54
:1003A000B11D3FBFBA2FA92F982F8827820F911D0B
:1003B000A11DB11DBC01CD0142E0660F771F881F52
:1003C000991F4A95D1F708951F920F920FB60F9279
:1003D00011242F933F938F939F93AF93BF9380915B
:1003E000520190915301A0915401B0915501309167
:1003F000510123E0230F2D3720F40196A11DB11DDB
:1004000005C026E8230F0296A11DB11D20935101BE
:100410008093520190935301A0935401B0935501DE
:100420008091560190915701A0915801B0915901C6
:100430000196A11DB11D8093560190935701A09381
:100440005801B0935901BF91AF919F918F913F9106
:100450002F910F900FBE0F901F9018951F920F9223
:100460000FB60F9211242F933F934F935F936F9387
:100470007F938F939F93AF93BF93EF93FF938FEAF5
:1004800091E00E94C405FF91EF91BF91AF919F91C0
:100490008F917F916F915F914F913F912F910F902D
:1004A0000FBE0F901F9018951F920F920FB60F92CC
:1004B00011242F938F939F93EF93FF93E091BF01AC
:1004C000F091C0018081E091C501F091C60182FDEB
:1004D00012C090818091C8018F5F8F732091C901F4
:1004E000821751F0E091C801F0E0E155FE4F958F81
:1004F0008093C80101C08081FF91EF919F918F91FE
:100500002F910F900FBE0F901F90189585ED80933F
:10051000BC008091BC0084FDFCCF10927D01089549
:100520000895E0917B0180917A01E81730F4F0E0C2
:10053000E65AFE4F808190E008958FEF9FEF089577
:1005400090917B0180917A01981750F4E92FF0E0A7
:10055000E65AFE4F208130E09F5F90937B0102C0FE
:100560002FEF3FEFC90108958F929F92AF92BF92F4
:10057000CF92DF92EF92FF924B01AA24BB24E82D89
:10058000C52ED62EE72EFF24FC2D342F20910E03EE
:10059000222361F0829E40011124E92DC29E600158
:1005A0001124FD2D429FD00111243B2FF090140304
:1005B000E0901103A0910F03B0911003FE1008C04A
:1005C000AC01440F551F840F951F8A0F9B1F14C049
:1005D000880F991F880F991F8A0F9B1F472F552738
:1005E00066277727DC01AF0DB11D222321F0429F42
:1005F000A0011124452F4C9320911103DC01A20F7F
:10060000B11DEC9320911203DC01A20FB11DFC93EC
:1006100020911303FC01E20FF11D3083FF90EF9056
:10062000DF90CF90BF90AF909F908F900895EF9202
:10063000FF921F93CF93DF931F92CDB7DEB77C015C
:10064000162F2150203108F04EC080E8E816F10442
:100650000CF449C0A1EEEA16F104ACF580917002E9
:1006600090917102DC01ED91FC916E2D622B019055
:10067000F081E02D4983099580917002909171027B
:10068000DC01ED91FC91612F6F770190F081E02DFD
:100690000995E894E4F84981B0ECEB16F10419F1FE
:1006A0008091700290917102DC01ED91FC91642FB8
:1006B0006F770190F081E02D0F90DF91CF911F9126
:1006C000FF90EF900994C701885F9109089758F44B
:1006D000B70180E792E00F90DF91CF911F91FF90DB
:1006E000EF900C94E5070F90DF91CF911F91FF9051
:1006F000EF9008951F920F920FB60F9211242F932F
:100700003F934F935F936F937F938F939F93AF9399
:10071000BF93EF93FF938091B900887F803609F4EF
:100720009CC068F5883209F45BC090F4803109F40C
:1007300054C038F4882309F4F6C0883009F44DC059
:10074000F6C0883109F44CC0803209F45DC0EFC0B6
:10075000803409F468C048F4803309F455C0883304
:1007600009F0E5C080937C01D8C0803509F44FC002
:10077000883509F45DC0883409F0D9C0D6C08839FD
:1007800009F4C7C0A8F4883709F467C038F488367C
:1007900009F463C0803709F460C0C9C0883809F41F
:1007A000B8C0803909F45FC0803809F0C0C05BC0B0
:1007B000803B09F486C038F4803A09F466C0883A70
:1007C00009F47FC0B4C0803C09F4A7C0883C09F498
:1007D000A4C0883B09F48AC0AAC08091A20110C0BD
:1007E0009091A1018091A001981770F5E091A1016D
:1007F00081E08E0F8093A101F0E0E058FE4F8081F0
:100800008093BB0085EC86C080937C018EC0E09114
:10081000A10181E08E0F8093A1018091BB00F0E0E7
:10082000E058FE4F80839091A1018091A0016EC09D
:10083000E091A10181E08E0F8093A1018091BB0026
:10084000F0E0E058FE4F808380917F0181116DC000
:1008500081E080937E0184EA61C083E080937D0122
:100860001092D403CFCF8091D403803208F051C0CE
:10087000E091D40381E08E0F8093D4038091BB007C
:10088000F0E0EC54FC4F8083BDCF85EC8093BC003E
:1008900010927D018091D403803230F4E091D40332
:1008A000F0E0EC54FC4F10826091D40370E0E091D2
:1008B000B203F091B30384EB93E009951092D40353
:1008C00036C084E080937D011092B1031092B00392
:1008D000E091AE03F091AF0309958091B0038111CF
:1008E00005C081E08093B00310928E03E091B103C4
:1008F00081E08E0F8093B103F0E0E257FC4F8081DE
:100900008093BB009091B1038091B003981708F4D5
:1009100079CF85E88093BC000AC085EC8093BC0049
:1009200010927D0104C010927C010E948602FF910A
:10093000EF91BF91AF919F918F917F916F915F9157
:100940004F913F912F910F900FBE0F901F901895D0
:100950004091B003262F30E0240F311D21323105A4
:10096000DCF420917D012430C9F4FC0180E090E0AA
:10097000861758F43091B0032191DC01A257BC4F87
:10098000A30FB11D2C930196F3CF8091B003680F94
:100990006093B00380E0089581E0089582E00895B7
:1009A00010927D0181E080937F0110927E0161E0D1
:1009B00082E10E94370161E083E10E943701E9EBA7
:1009C000F0E080818E7F808380818D7F808388E4CA
:1009D0008093B80085E48093BC00089580E090E0A7
:1009E0000895FC01538D448D252F30E0842F90E035
:1009F000821B930B541710F0CF960895019708951A
:100A0000FC01918D828D981761F0828DDF01A80F16
:100A1000B11D5D968C91928D9F5F9F73928F90E038
:100A200008958FEF9FEF0895FC01918D828D9817A7
:100A300031F0828DE80FF11D858D90E008958FEFE4
:100A40009FEF0895FC01918D228D892F90E0805CAD
:100A50009F4F821B91098F739927089580E090E042
:100A6000892B29F00E942B0181110C94000008951C
:100A70000895CF92DF92FF920F931F93CF93DF934E
:100A8000FC01F08021E020935001F092D5031092F8
:100A90004E0110924F018C01025F1F4FEC016696D0
:100AA0006801F801618183EA91E00E94FC000E5F19
:100AB0001F4FF601608183EA91E00E94FC000C1751
:100AC0001D0771F790914F01913208F04AC0809153
:100AD0007D018111FCCF22E020937D0121E0209354
:100AE0007F012FEF20937C011092A1019093A00130
:100AF000AEE2B1E040E851E0FA012E2F241B2917A5
:100B000018F42D912193F9CF1092A2019091A20196
:100B1000FF0CF92AF092A20190917E01913061F4CC
:100B200010927E019091A2019093BB009091BC0025
:100B300093FDF8CF95EC01C095EE9093BC00909199
:100B40007D019230E1F390917C019F3F79F080919B
:100B50007C01803241F080917C01803331F084E06F
:100B600005C081E003C082E001C083E010924E0125
:100B700010924F0110925001DF91CF911F910F9170
:100B8000FF90DF90CF900895FC01848DDF01A80FC6
:100B9000B11DA35ABF4F2C91848D90E001968F73A5
:100BA0009927848FA689B7892C93A089B1898C91C4
:100BB00080648C93938D848D981306C00288F3898A
:100BC000E02D80818F7D80830895EF92FF920F93B7
:100BD0001F93CF93DF93EC0181E0888F9B8D8C8DE9
:100BE000981305C0E889F989808185FD24C0F62E17
:100BF0000B8D10E00F5F1F4F0F731127E02E8C8DB0
:100C0000E8120CC00FB607FCFACFE889F989808199
:100C100085FFF5CFCE010E94C405F1CF8B8DFE017B
:100C2000E80FF11DE35AFF4FF0820B8FEA89FB8931
:100C30008081806207C0EE89FF896083E889F98935
:100C400080818064808381E090E0DF91CF911F916B
:100C50000F91FF90EF900895CF93DF93EC01888D73
:100C60008823C9F0EA89FB89808185FD05C0A889B0
:100C7000B9898C9186FD0FC00FB607FCF5CF808136
:100C800085FFF2CFA889B9898C9185FFEDCFCE0180
:100C90000E94C405E7CFDF91CF9108958F929F9274
:100CA000AF92BF92CF92DF92EF92FF920F931F937A
:100CB000CF93DF93EC015B01088119810150110989
:100CC00017FD24C0F501E00FF11FC0809A808C80D1
:100CD00087E0E82EF12CD12C96010E2C02C0359520
:100CE00027950A94E2F7B90161707727882D0E9451
:100CF000370161E0892D0E94370160E0892D0E9453
:100D0000370181E0E81AF10838F7D8CFB986A8860C
:100D100061E08E810E94370160E08E81DF91CF918A
:100D20001F910F91FF90EF90DF90CF90BF90AF9009
:100D30009F908F900C943701CF93C82FE82FF0E04D
:100D400083E0F595E7958A95E1F7809124039091EA
:100D50002503E80FF91F8C2F877021E030E001C0D8
:100D6000220F8A95EAF720958081282320836091BD
:100D70002403709125038CE193E00E944E0680913C
:100D8000090390910A03892B49F04C2F50E060E051
:100D900070E080E090E0CF910C94B402CF91089580
:100DA0001F93CF93DF93182FC82FD0E070E0FE0180
:100DB000EE0FFF1F8430B8F5E859FC4F7183608354
:100DC0008AE593E00E94390583E0D595C7958A9519
:100DD000E1F78091240390912503C80FD91F812F3B
:100DE000877021E030E001C0220F8A95EAF7888100
:100DF000282B288360912403709125038CE193E0D4
:100E00000E944E068091090390910A03892B91F06C
:100E1000412F50E060E070E080E090E0DF91CF9102
:100E20001F910C94B402EC5CFC4F7183608386E2EA
:100E300093E0C8CFDF91CF911F910895CF92DF92B9
:100E4000EF92FF920F931F93CF93DF93EC01888172
:100E500090917D019111FCCF91E090937D01909351
:100E60007F012FEF20937C011092A10127E12093B5
:100E7000A0019093A2019091A201880F892B8093E9
:100E8000A20180917E01813061F410927E018091F7
:100E9000A2018093BB008091BC0083FDF8CF85EC5C
:100EA00001C085EE8093BC0080917D018130E1F32B
:100EB0008091A101883118F48091A10101C088E1DD
:100EC000A0E8B1E02AE531E0F9019E2F921B9817C6
:100ED00018F49D919193F9CF10927B0180937A0140
:100EE00090917A0180917B01981709F465C083EA9B
:100EF00091E00E94A0027C0183EA91E00E94A0029E
:100F00006C0183EA91E00E94A002AC01970120737A
:100F1000332784E0359527958A95E1F78E01020FF6
:100F2000131FD601A078BB27F601E071FF27B60199
:100F3000607677279C2D9F705527E3FE1BC07D01AF
:100F4000EE0CEF2CEE1CFF08D8015E96EC925E973B
:100F500014E0F595E7951A95E1F79296EC93929740
:100F600005E0759567950A95E1F796966C93F901FA
:100F70003B961AC07D01EE0CEF2CEE1CFF08D80149
:100F80001296EC92129714E0F595E7951A95E1F711
:100F90001696EC93169705E0759567950A95E1F717
:100FA0001A966C93F9013796EE0FFF1FEC0FFD1F99
:100FB000592B5183408394CFDF91CF911F910F9193
:100FC000FF90EF90DF90CF9008956D3F71053CF456
:100FD0006A3F710554F4683F710589F406C09B01AE
:100FE0002E5F31092230310550F4DC018D919C9146
:100FF000DC01ED91FC910190F081E02D09940895C0
:1010000087FF0DC09CE0980F923048F0982F9B7F8F
:10101000993F29F0803F08F4807F90E0089580E0B8
:1010200090E008959C018F7C8038910561F0203D0F
:10103000310549F081E0203E310539F0203C310591
:1010400021F080E0089581E008950895DC01ED919C
:10105000FC910190F081E02D0994CF93DF9300D0B3
:101060001F92CDB7DEB7789484B5826084BD84B515
:10107000816084BD85B5826085BD85B5816085BD93
:1010800080916E00816080936E001092810080914B
:1010900081008260809381008091810081608093D3
:1010A0008100809180008160809380008091B100F8
:1010B00084608093B1008091B00081608093B00023
:1010C00080917A00846080937A0080917A008260B7
:1010D00080937A0080917A00816080937A00809179
:1010E0007A00806880937A001092C100E091BF017D
:1010F000F091C00122E02083E091BB01F091BC019E
:101100001082E091BD01F091BE018FEC80831092BE
:10111000C701E091C301F091C40196E09083E09192
:10112000C101F091C201808180618083E091C101A1
:10113000F091C201808188608083E091C101F091CB
:10114000C201808180688083E091C101F091C20179
:1011500080818F7D8083E0917002F0917102A0897F
:10116000B1892C93A485B5851C92A685B7858FE39C
:101170008C93108EA489B5899C93A289B3898C9194
:1011800080618C93A289B3898C9188608C93A289A9
:10119000B3898C9180688C930288F389E02D8081DB
:1011A0008F7D8083109272021092740210927302EB
:1011B00010927B0210927A021092790210927802B9
:1011C0008FEF9FEF90937D0280937C0290937F023C
:1011D00080937E0210920603109283021092820284
:1011E00010928102109284021092850280918002F6
:1011F0008170826081608093800280ED96E09093A0
:101200004F0280934E028CE996E090934D028093BA
:101210004C0288E395E0909353028093520280E061
:1012200090E020911C0330911D0360912403709184
:1012300025038217930734F4FB01E80FF91F10828E
:101240000196EFCF8CE193E00E944E0610927B0155
:1012500010927A0110924E0110924F010E94D00418
:101260008AE593E00E941E0710927B0110927A019A
:101270000E94D00486E293E00E941E0750E8C52E2B
:10128000D12C11E067EF262E70EF472E512CE2E0B3
:10129000AE2EB12CF3E08F2E912CA0EF3A2E6624C7
:1012A0006394712C00917202013108F0BAC18091EF
:1012B000700290917102DC01ED91FC910084F18546
:1012C000E02D0995892B09F4ACC1809170029091B1
:1012D0007102DC01ED91FC910284F385E02D09950A
:1012E000BC018B7F893F09F49CC120917A02309127
:1012F0007B022115310509F0ADC060937502F090B5
:1013000073028F2D69837A830E9400080E9412085D
:101310006981882351F067FD08C0F09275026093DF
:10132000760270927B0260927A02F09075028F2DA5
:101330000E940008813F910509F45DC06CF5803B77
:10134000910509F45DC06CF48039910509F458C029
:10135000803A910509F454C08038910509F0D3C052
:101360004FC0803D910509F446C02CF4803C9105A6
:1013700009F441C0C8C0803E910509F441C0803FD6
:10138000910509F0C0C0D0927902C0927802109203
:1013900073023092860238C0883F9105B9F044F458
:1013A000833F910541F164F1863F910579F0ABC02F
:1013B0008A3F91050CF4A7C08D3F91053CF09C013C
:1013C0002E5F31092230310508F09DC090938302D1
:1013D0008093820210928102109284021092850200
:1013E0001093060310927B0210927A0210927902F7
:1013F00010927802F1C0B0927902A092780204C0F3
:10140000909279028092780220917A0230917B0248
:1014100040917802509179024150510924173507C3
:1014200008F4D3C090938302809382028F2D8F7033
:101430008F5F809381028091760280938402109264
:10144000850210927B0210927A0210927902109219
:10145000780221C067FF41C0CB0199278D3F9105DC
:1014600054F48A3F91056CF4873F9105B9F0883FA9
:10147000910599F506C0AC014E5F51094230510506
:1014800060F59093830280938202109284021092FE
:10149000850210928102109306039EC080918602FD
:1014A000803F89F5C9010196F901E45BFD4F22AE49
:1014B000509283024092820280938402909385022C
:1014C000109281021093060310927B0210927A020E
:1014D000109279021092780275C080917502F9011C
:1014E000E45BFD4F803FD1F462AF409178025091B0
:1014F0007902CA0101972817390708F466C02091BC
:101500007502203F69F410927B0210927A021092C9
:101510007902109278021092730283C061A7E5CF1E
:10152000822F2B8349835A830E9400087C01909369
:101530008302809382020E9412082B8149815A8182
:10154000882331F0822F8F708F5F8093810202C0D9
:10155000109281028091760280938402433051057B
:1015600019F48091770201C080E080938502109287
:101570007B0210927A0210927902109278021093F4
:101580000603B0EBEB16F104D1F06CF4A0E9EA1617
:10159000F104A9F0B0EAEB16F10489F080E8E8164E
:1015A000F10481F40CC0A0EDEA16F10441F0B0EEB4
:1015B000EB16F10421F080ECE816F10419F4209305
:1015C00073020AC01092730207C02F5F3F4F30931F
:1015D0007B0220937A0225C080918202909183023F
:1015E0008039910529F480918502882309F4F5C09A
:1015F00080918202909183029C012058310921360A
:10160000310508F0EFC020918102201709F4EAC0EB
:10161000002309F4E7C040918002342F317040FD6F
:1016200003C00E942E053ECE842F8E7FD1F3809181
:10163000820290918302BC01605871096136710584
:10164000F8F420918102201719F031E0011130E007
:10165000469550E04230510539F04330510539F09C
:1016600041305105F1F605C03323D9F202C03111E2
:10167000D8CF40918502609184020E941703D1CF98
:10168000FC01E05FF109E031F10558F6EC5CFF4F39
:101690000C94420FBC0180E792E00E94E507C1CFA5
:1016A0008091850290E0382F222780918402282B98
:1016B0002138310510F020E830E0E12CF12CE21661
:1016C000F30609F4AECF8091700290917102DC01B3
:1016D000ED91FC91D701A45BBD4F0190F081E02D0D
:1016E000DA966C912B8339830995BFEFEB1AFB0ACD
:1016F00039812B81E4CF0091840280917002909116
:101700007102DC01ED91FC910190F081E02D63EF1D
:1017100009950F77602F70E08091700290917102AF
:101720000E9426087ECF90918502B0E89B9F7001B1
:10173000112480918402E82A8091700290917102B4
:10174000DC01ED91FC910190F081E02D62EF0995B3
:101750008091700290917102DC01ED91FC91B701D2
:101760006F7777270190F081E02D099580917002C5
:1017700090917102DC01ED91FC91B701660F672F2A
:10178000661F770B71956F7777270190F081E02DB9
:1017900022C0809184028770B0E18B9FC001112428
:1017A000009185020F70082B809170029091710258
:1017B000DC01ED91FC910190F081E02D61EF099544
:1017C0008091700290917102DC01ED91FC91019089
:1017D000F081E02D602F099524CFD0928302C09232
:1017E000820206CF813F9105C1F4E0915C02F09145
:1017F0005D020CC08B3F91050CF0C8C0833F910582
:1018000009F0A5C0E0916002F0916102309709F4FF
:1018100002CF809184020995FECE823F91050CF0A3
:1018200080C0803B9105C1F4E0915202F0915302D7
:1018300008C08038910509F0EECEE0914C02F0919D
:101840004D02309709F4E7CE409185026091840201
:10185000809181020995DFCE813B910584F4803926
:10186000910529F4E0914E02F0914F02EACF803ABF
:101870009105F9F6E0915002F0915102E2CF803DDE
:10188000910529F4E0915602F09157020BC0813D79
:1018900091058CF4803C910509F0BDCEE091540295
:1018A000F0915502309709F4B6CE60918402809190
:1018B00081020995B0CE803E9105B9F4E0915802BD
:1018C000F0915902309709F4A6CE609185026F77A6
:1018D000A0E86A9FB0011124809184028F77682B61
:1018E000705280918102099596CE803F910509F052
:1018F00092CEE0915A02F0915B02309709F48BCEC0
:101900006091850270E0762F662780918402682BB3
:101910006138710510F060E870E086E892E00995A2
:101920007ACE8A3F910509F065CFE0916602F09189
:10193000670208C0883F910509F06DCEE09164020E
:10194000F0916502309709F466CE099564CE833F25
:101950009105A4F4E0915E02F0915F02309709F4E2
:101960005ACE809185028F77B0E88B9FC0011124F9
:10197000209184022F77822B09954DCE863F9105C9
:10198000C9F6E0916202F0916302DCCF8C3F9105D1
:1019900029F4E0916A02F0916B02D4CF8C3F91055B
:1019A0002CF4E0916802F0916902CCCF8E3F910552
:1019B00029F4E0916C02F0916D02C4CF8F3F910544
:1019C00009F029CEE0916E02F0916F02BBCF0F9328
:1019D0001F93CF93DF93CDB7DEB729970FB6F89457
:1019E000DEBF0FBECDBF1092A6011092A50188EEFA
:1019F00093E0A0E0B0E08093A7019093A801A093AA
:101A0000A901B093AA012EE031E03093A401209304
:101A1000A3011092B2011092B1018093B30190938F
:101A2000B401A093B501B093B60180E291E0909328
:101A3000B0018093AF0185EC90E09093BC0180935E
:101A4000BB0184EC90E09093BE018093BD0180ECDB
:101A500090E09093C0018093BF0181EC90E090935F
:101A6000C2018093C10182EC90E09093C401809305
:101A7000C30186EC90E09093C6018093C50110925B
:101A8000C8011092C9011092CA011092CB011092A4
:101A90005B0380E680935A0388E893E190938D037B
:101AA00080938C0311E01093270321E620932603F3
:101AB000909359038093580382E090E090931D0324
:101AC00080931C0321E030E030931F0320931E031A
:101AD00010922103109220039093230380932203FA
:101AE00061E081E00E94830161E080E00E94830167
:101AF00061E082E00E94830160E081E00E943701A2
:101B000060E080E00E94370160E082E00E943701DF
:101B100082E090E00E94480F909325038093240375
:101B2000DC011D921C92BC018CE193E00E944E06E8
:101B30001092080310920E031092150310921603D0
:101B400010921703109218031093140310931103AB
:101B50001092120382E0809313031093070388E12D
:101B600090E090930C0380930B030E94480F909396
:101B7000100380930F03009761F028E1FC0111929C
:101B80002A95E9F788E090E090930A03809309038F
:101B900008C010920C0310920B0310920A031092CB
:101BA000090386E080930D0380910803882341F0A8
:101BB00061E086E00E94830160E086E00E943701D8
:101BC000EAECF0E0E491F0E0EE0FFF1FE654FF4F87
:101BD0008591949190931A0380931903ECEAF0E0B5
:101BE000E491E0931B0380910D0387FD08C061E041
:101BF0000E94830160E080910D030E94370181E023
:101C00008093080380910F0390911003892B09F4AE
:101C1000A2C00E94BF0100911503109116032091EC
:101C2000170330911803DC01CB01801B910BA20B31
:101C3000B30B8C329140A105B10558F3F894809113
:101C40000B0390910C039A838983E0910F03F09129
:101C50001003DF0111968081898790910703E0913D
:101C60001903F0911A0380911B03992309F42EC0E4
:101C70009081982B98879081809589238F838F817D
:101C80008C8388E08B8358856F8149853B812C81CB
:101C900089819A81508347FD252F3A952083262FED
:101CA00039F0441F00C000006083000000C0F2CF84
:101CB00038E04D9160830000019761F7F0931A03BB
:101CC000E093190349873B832C8338C09081982B7C
:101CD00098879081809589238F838F818E8388E078
:101CE0008D8358856F8149853D812E8189819A81B7
:101CF000508347FD252F00C000C0208300C000C0D6
:101D000000C000C000C060830000262F3A9541F05B
:101D1000441F000000C000C000C000C000C0E8CFE9
:101D200038E04D9100C0608300C0019709F7F0933F
:101D30001A03E093190349873D832E839A8389838D
:101D400078940E94BF0160931503709316038093EB
:101D50001703909318038FEA91E090937102809398
:101D6000700210927202109273021092740210921A
:101D700079021092780210927B0210927A028FEF11
:101D80009FEF90937D0280937C0290937F028093DB
:101D90007E0283E08093800210928102109283027F
:101DA0001092820210928402109285021092060311
:101DB00080E8E6E8F2E0DF011D928A95E9F71092EB
:101DC0004D0210924C0210924F0210924E0210924D
:101DD000510210925002109253021092520210922D
:101DE000550210925402109257021092560210920D
:101DF00059021092580210925B0210925A021092ED
:101E00005D0210925C0210925F0210925E021092CC
:101E100061021092600210926302109262021092AC
:101E2000650210926402109267021092660210928C
:101E300069021092680210926B0210926A0210926C
:101E40006D0210926C0210926F0210926E0229962F
:101E50000FB6F894DEBF0FBECDBFDF91CF911F91BB
:101E60000F91089580910F0390911003009711F046
:101E70000E94DD0F80910D0387FD03C060E00C948C
:101E800083010895EE0FFF1F0590F491E02D099452
:101E9000CF93DF938230910510F482E090E0E091DF
:101EA000D803F091D90320E030E0C0E0D0E03097D3
:101EB00011F14081518148175907C0F0481759075F
:101EC00061F482819381209719F09B838A832BC0D0
:101ED0009093D9038093D80326C02115310519F0BA
:101EE0004217530718F49A01BE01DF01EF01028087
:101EF000F381E02DDCCF2115310509F1281B390BC9
:101F00002430310590F412968D919C9113976115B0
:101F1000710521F0FB019383828304C09093D90360
:101F20008093D803FD01329644C0FD01E20FF31FF8
:101F300081939193225031092D933C933AC0209183
:101F4000D6033091D703232B41F420910201309125
:101F500003013093D7032093D603209100013091E1
:101F600001012115310541F42DB73EB7409104011F
:101F700050910501241B350BE091D603F091D70356
:101F8000E217F307A0F42E1B3F0B2817390778F050
:101F9000AC014E5F5F4F2417350748F04E0F5F1FAF
:101FA0005093D7034093D6038193919302C0E0E00E
:101FB000F0E0CF01DF91CF9108950F931F93CF935E
:101FC000DF93009709F48CC0FC01329713821282D0
:101FD0000091D8031091D9030115110581F42081D6
:101FE0003181820F931F2091D6033091D703281798
:101FF000390779F5F093D703E093D60371C0D80180
:1020000040E050E0AE17BF0750F412962D913C917E
:102010001397AD012115310509F1D901F3CF9D01C8
:10202000DA013383228360817181860F971F8217C3
:10203000930769F4EC0128813981260F371F2E5F41
:102040003F4F318320838A819B8193838283452BF9
:1020500029F4F093D903E093D80342C01396FC937C
:10206000EE931297ED01499159919E01240F351F6E
:10207000E217F30771F480819181840F951F029616
:1020800011969C938E938281938113969C938E9349
:102090001297E0E0F0E0D80112968D919C91139791
:1020A000009719F0F8018C01F6CF8D919C91980161
:1020B0002E5F3F4F820F931F2091D6033091D7039D
:1020C0002817390769F4309729F41092D903109230
:1020D000D80302C0138212821093D7030093D60351
:1020E000DF91CF911F910F91089581E090E0F894D6
:1020F0000C947A1010E0CDE6D0E004C0FE010E94FE
:0E210000420F2196CE36D107C9F7F894FFCFD3
:10210E000000DA0380000100000000000000FC0067
:10211E00CC00EE0490029800A00291020000000094
:0E212E00E505A000F1042C06220500051405AD
:00000001FF
